{
  "address": "0x7a2088a1bFc9d81c55368AE168C2C02570cB814F",
  "abi": [
    {
      "inputs": [],
      "stateMutability": "nonpayable",
      "type": "constructor"
    },
    {
      "inputs": [],
      "name": "SemaphoreVerifier__ArrayLengthMismatch",
      "type": "error"
    },
    {
      "inputs": [],
      "name": "SemaphoreVerifier__CallerIsNotOwner",
      "type": "error"
    },
    {
      "inputs": [
        {
          "internalType": "uint256",
          "name": "depth",
          "type": "uint256"
        }
      ],
      "name": "SemaphoreVerifier__InvalidDepth",
      "type": "error"
    },
    {
      "inputs": [
        {
          "internalType": "uint256",
          "name": "depth",
          "type": "uint256"
        }
      ],
      "name": "SemaphoreVerifier__VerificationKeyAlreadySet",
      "type": "error"
    },
    {
      "inputs": [
        {
          "internalType": "uint256",
          "name": "depth",
          "type": "uint256"
        }
      ],
      "name": "SemaphoreVerifier__VerificationKeyNotConfigured",
      "type": "error"
    },
    {
      "inputs": [],
      "name": "SemaphoreVerifier__VerificationKeysLocked",
      "type": "error"
    },
    {
      "inputs": [
        {
          "internalType": "uint256",
          "name": "depth",
          "type": "uint256"
        }
      ],
      "name": "isVerificationKeyConfigured",
      "outputs": [
        {
          "internalType": "bool",
          "name": "",
          "type": "bool"
        }
      ],
      "stateMutability": "view",
      "type": "function"
    },
    {
      "inputs": [],
      "name": "lockVerificationKeys",
      "outputs": [],
      "stateMutability": "nonpayable",
      "type": "function"
    },
    {
      "inputs": [],
      "name": "owner",
      "outputs": [
        {
          "internalType": "address",
          "name": "",
          "type": "address"
        }
      ],
      "stateMutability": "view",
      "type": "function"
    },
    {
      "inputs": [
        {
          "internalType": "uint8[]",
          "name": "depths",
          "type": "uint8[]"
        },
        {
          "internalType": "uint256[14][]",
          "name": "points",
          "type": "uint256[14][]"
        }
      ],
      "name": "uploadVerificationKeys",
      "outputs": [],
      "stateMutability": "nonpayable",
      "type": "function"
    },
    {
      "inputs": [],
      "name": "verificationKeysLocked",
      "outputs": [
        {
          "internalType": "bool",
          "name": "",
          "type": "bool"
        }
      ],
      "stateMutability": "view",
      "type": "function"
    },
    {
      "inputs": [
        {
          "internalType": "uint256[2]",
          "name": "_pA",
          "type": "uint256[2]"
        },
        {
          "internalType": "uint256[2][2]",
          "name": "_pB",
          "type": "uint256[2][2]"
        },
        {
          "internalType": "uint256[2]",
          "name": "_pC",
          "type": "uint256[2]"
        },
        {
          "internalType": "uint256[4]",
          "name": "_pubSignals",
          "type": "uint256[4]"
        },
        {
          "internalType": "uint256",
          "name": "merkleTreeDepth",
          "type": "uint256"
        }
      ],
      "name": "verifyProof",
      "outputs": [
        {
          "internalType": "bool",
          "name": "",
          "type": "bool"
        }
      ],
      "stateMutability": "view",
      "type": "function"
    }
  ],
  "transactionHash": "0xaca1113a3e24db2dc1a7b2d8760735b4bbe9c6306b1ec8955558ba42641804de",
  "args": [],
  "numDeployments": 1,
  "solcInputHash": "acef67a9da7e2b1bcf8ddebe3a08ab0e",
  "bytecode": "0x60a060405234801561001057600080fd5b5033608052608051610aa261003d6000396000818160a10152818161013701526106470152610aa26000f3fe608060405234801561001057600080fd5b50600436106100625760003560e01c8063228f851b146100675780634df02ebb1461008f5780638da5cb5b1461009c578063927ffcb8146100db578063a23f0199146100e5578063e6c55536146100f8575b600080fd5b61007a610075366004610898565b61010b565b60405190151581526020015b60405180910390f35b60005461007a9060ff1681565b6100c37f000000000000000000000000000000000000000000000000000000000000000081565b6040516001600160a01b039091168152602001610086565b6100e361012c565b005b61007a6100f33660046108d9565b6101fd565b6100e361010636600461093c565b61063c565b6000610116826107a1565b5060009081526001602052604090205460ff1690565b336001600160a01b037f000000000000000000000000000000000000000000000000000000000000000016146101755760405163efbaa27d60e01b815260040160405180910390fd5b60005460ff161561019957604051633600f83560e01b815260040160405180910390fd5b60015b602081116101ed5760008181526001602052604090205460ff166101db57604051636f16297560e11b8152600481018290526024015b60405180910390fd5b806101e581610a05565b91505061019c565b506000805460ff19166001179055565b6000610208826107a1565b60008281526001602052604090205460ff1661023a57604051636f16297560e11b8152600481018390526024016101d2565b60006102476002846107d1565b90506105d6565b7f30644e72e131a029b85045b68181585d2833e84879b9709143e1f593f0000001811061027f576000805260206000f35b50565b60006040518381528460208201528560408201526040816060836007611f40fa9150816102b3576000805260206000f35b8251604082015260208301516060820152604083608083600660c8fa915050806102e1576000805260206000f35b5050505050565b600060808601600087016080890151815260a0890151602082015261031b600088013560e08b015160c08c015184610282565b61033560208801356101208b01516101008c015184610282565b61034f60408801356101608b01516101408c015184610282565b61036960608801356101a08b01516101808c015184610282565b50823581527f30644e72e131a029b85045b68181585d97816a916871ca8d3c208c16d87cfd4760208401357f30644e72e131a029b85045b68181585d97816a916871ca8d3c208c16d87cfd4703066020820152833560408201526020840135606082015260408401356080820152606084013560a08201527f245229d9b076b3c0e8a4d70bde8c1cccffa08a9fae7557b165b3b0dbd653e2c760c08201527f253ec85988dbb84e46e94b5efa3373b47a000b4ac6c86b2d4b798d274a18230260e08201527f07090a82e8fabbd39299be24705b92cf208ee8b3487f6f2b39ff27978a29a1db6101008201527f2424bcc1f60a5472685fd50705b2809626e170120acaf441e133a2bd5e61d2446101208201527f0ae1135cffdaf227c5dc266740607aa930bc3bd92ddc2b135086d9da2dfd3e2a6101408201527f2b86859fd3d55c9d150fb3f0aeba798826493dd73d357ab0f9fdaced9fc81829610160820152600087015161018082015260206000018701516101a08201527f198e9393920d483a7260bfb731fb5d25f1aa493335a9e71297e485b7aef312c26101c08201527f1800deef121f1e76426a00665e5c4479674322d4f75edadd46debd5cd992f6ed6101e08201527f090689d0585ff075ec9e99ad690c3395bc4b313370b38ef355acdadcd122975b6102008201527f12c85ea5db8c6deb4aab71808dcb408fe3d1e7690c43d37b4ce6cc0166fa7daa61022082015284356102408201526020850135610260820152875161028082015260208801516102a082015260408801516102c082015260608801516102e08201526020816103008360086203aeb5fa905116979650505050505050565b60405161038081016040526105ee600086013561024e565b6105fb602086013561024e565b610608604086013561024e565b610615606086013561024e565b610622608086013561024e565b610630828287898b8d6102e8565b90508060005260206000f35b336001600160a01b037f000000000000000000000000000000000000000000000000000000000000000016146106855760405163efbaa27d60e01b815260040160405180910390fd5b60005460ff16156106a957604051633600f83560e01b815260040160405180910390fd5b828015806106b75750808214155b156106d557604051630b1335ed60e21b815260040160405180910390fd5b60005b818110156107995760008686838181106106f4576106f4610a2c565b90506020020160208101906107099190610a42565b60ff169050610717816107a1565b60008181526001602052604090205460ff161561074a5760405163139234c560e21b8152600481018290526024016101d2565b6107788186868581811061076057610760610a2c565b90506101c00201600261082d9092919063ffffffff16565b6000908152600160208190526040909120805460ff191682179055016106d8565b505050505050565b60018110806107b05750602081115b1561027f57604051632282297b60e11b8152600481018290526024016101d2565b6107d9610879565b6000828152602084905260408120905b600e811015610825578181600e811061080457610804610a2c565b01548382600e811061081857610818610a2c565b60200201526001016107e9565b505092915050565b6000828152602084905260408120905b600e8110156102e1578281600e811061085857610858610a2c565b60200201358282600e811061086f5761086f610a2c565b015560010161083d565b604051806101c00160405280600e906020820280368337509192915050565b6000602082840312156108aa57600080fd5b5035919050565b80604081018310156108c257600080fd5b92915050565b80608081018310156108c257600080fd5b60008060008060006101a086880312156108f257600080fd5b6108fc87876108b1565b945061090b87604088016108c8565b935061091a8760c088016108b1565b925061092a8761010088016108c8565b94979396509194610180013592915050565b6000806000806040858703121561095257600080fd5b843567ffffffffffffffff8082111561096a57600080fd5b818701915087601f83011261097e57600080fd5b81358181111561098d57600080fd5b8860208260051b85010111156109a257600080fd5b6020928301965094509086013590808211156109bd57600080fd5b818701915087601f8301126109d157600080fd5b8135818111156109e057600080fd5b8860206101c0830285010111156109f657600080fd5b95989497505060200194505050565b600060018201610a2557634e487b7160e01b600052601160045260246000fd5b5060010190565b634e487b7160e01b600052603260045260246000fd5b600060208284031215610a5457600080fd5b813560ff81168114610a6557600080fd5b939250505056fea2646970667358221220e46cf978f7094a83c4a3cf7b562ef22d40275f8d5ab9afdc65b23eab6b2385bc64736f6c63430008180033",
  "devdoc": {
    "kind": "dev",
    "methods": {},
    "version": 1
  },
  "userdoc": {
    "kind": "user",
    "methods": {},
    "version": 1
  },
  "storageLayout": {
    "storage": [
      {
        "astId": 1919,
        "contract": "contracts/base/SemaphoreVerifier.sol:SemaphoreVerifier",
        "label": "verificationKeysLocked",
        "offset": 0,
        "slot": "0",
        "type": "t_bool"
      },
      {
        "astId": 1923,
        "contract": "contracts/base/SemaphoreVerifier.sol:SemaphoreVerifier",
        "label": "isDepthConfigured",
        "offset": 0,
        "slot": "1",
        "type": "t_mapping(t_uint256,t_bool)"
      },
      {
        "astId": 1926,
        "contract": "contracts/base/SemaphoreVerifier.sol:SemaphoreVerifier",
        "label": "vkStore",
        "offset": 0,
        "slot": "2",
        "type": "t_struct(Store)2173_storage"
      }
    ],
    "types": {
      "t_array(t_uint256)14_storage": {
        "base": "t_uint256",
        "encoding": "inplace",
        "label": "uint256[14]",
        "numberOfBytes": "448"
      },
      "t_bool": {
        "encoding": "inplace",
        "label": "bool",
        "numberOfBytes": "1"
      },
      "t_mapping(t_uint256,t_array(t_uint256)14_storage)": {
        "encoding": "mapping",
        "key": "t_uint256",
        "label": "mapping(uint256 => uint256[14])",
        "numberOfBytes": "32",
        "value": "t_array(t_uint256)14_storage"
      },
      "t_mapping(t_uint256,t_bool)": {
        "encoding": "mapping",
        "key": "t_uint256",
        "label": "mapping(uint256 => bool)",
        "numberOfBytes": "32",
        "value": "t_bool"
      },
      "t_struct(Store)2173_storage": {
        "encoding": "inplace",
        "label": "struct SemaphoreVerifierKeyPts.Store",
        "members": [
          {
            "astId": 2172,
            "contract": "contracts/base/SemaphoreVerifier.sol:SemaphoreVerifier",
            "label": "data",
            "offset": 0,
            "slot": "0",
            "type": "t_mapping(t_uint256,t_array(t_uint256)14_storage)"
          }
        ],
        "numberOfBytes": "32"
      },
      "t_uint256": {
        "encoding": "inplace",
        "label": "uint256",
        "numberOfBytes": "32"
      }
    }
  }
}